S01000004672656552544F532E737265634A
S11300000C942A000C9447000C9447000C9447006D
S11300100C9447000C9447000C9447000C94C502C0
S11300200C9447000C9447000C9447000C94470030
S11300300C9447000C94C90E0C9447000C94470090
S11300400C94F50C0C9447000C9447000C94470056
S11300500C94470011241FBECFE5D8E0DEBFCDBF0E
S113006010E0A0E6B0E0E0E2FEE102C005900D92EF
S1130070A636B107D9F727E0A6E6B0E001C01D9285
S1130080A232B207E1F70E94AD0C0C940E0F0C944F
S11300900000CF93C82F20E040E050E060E070E023
S11300A08091B8069091B9060E9466058091680017
S11300B0E82FF0E0E654F94FC0838F5F8093680027
S11300C0CF910895CF93DF93EC0120E040E050E01E
S11300D060E070E080912007909121070E946605FE
S11300E024EF31E0C29FC001C39F900DD29F900DB9
S11300F011246FEF73E00E94F10E70936700609318
S11301006600DF91CF91089562E070E08091B806B7
S11301109091B9060E94F805813089F409C0EC2F4A
S1130120F0E0E654F94F80810E94890CCF5F01C052
S1130130C0E080916800C81790F31092680088EEC0
S113014093E00E94AA0AE0CF42E060E080E00E94CF
S11301501E0D42E061E080E00E941E0D42E062E07C
S113016080E00E941E0D42E060E082E00E941E0DCD
S113017042E061E082E00E941E0D40E060E080E029
S11301800E94E20D40E061E080E00E94E20D40E068
S113019062E080E00E94E20D40E060E082E00E94C4
S11301A0E20D40E061E082E00E94E20D0E94570C03
S11301B089E490E00E94C20E0E94A90E82E690E0BB
S11301C00E94EE0C80E00E94B40C0895EF92FF921E
S11301D00F9360E086E60E9450059093B9068093E1
S11301E0B806E12CF12C01E020E030E04AEF50E0C9
S11301F060E070E084E890E00E9430080F91FF9086
S1130200EF900895FC010396928381832FEF3FEFD3
S1130210348323839683858390878783108208950C
S1130220FC01118610860895CF93DF93EB0148817A
S113023059814F3F2FEF520721F4FC01A781B0856C
S11302400DC0DC01139601C0DF011296ED91FC9103
S113025013972081318142175307B0F71296ED911D
S1130260FC911397FB83EA83D583C483BD83AC835A
S11302701396DC93CE93129799878887FC0120818B
S11302802F5F2083DF91CF910895CF93DF93FC01FB
S1130290A085B185C281D381848195819D838C831E
S11302A0C481D581828193819B838A8311968D91A8
S11302B09C911297E817F90731F48481958112967D
S11302C09C938E931197118610868C9181508C93F8
S11302D08C91DF91CF9108951BBC89EF8ABD8BE08F
S11302E08EBD89B7806189BF089531E1FC013083F7
S11302F0319722E220833197A3E3A083319760836F
S11303003197708331971082319760E86083319719
S11303101082319762E06083319763E060833197A4
S113032064E06083319765E06083319766E06083C1
S1130330319767E06083319768E06083319769E0C3
S11303406083319760E1608331973083319732E184
S11303503083319733E13083319734E130833197FF
S113036035E13083319736E13083319737E130839B
S1130370319738E13083319739E13083319730E276
S11303803083319731E2308331972083319723E2F0
S113039020833197408331975083319726E220831D
S11303A0319727E22083319728E22083319729E28D
S11303B02083319720E32083319721E3208386979C
S11303C008950E946C01A091AF06B091B006CD9142
S11303D0CDBFDD91DEBFFF91EF91DF91CF91BF9152
S11303E0AF919F918F917F916F915F914F913F91C9
S11303F02F911F910F91FF90EF90DF90CF90BF90BE
S1130400AF909F908F907F906F905F904F903F90B0
S11304102F901F900F900FBE0F90089581E00895C4
S11304200F920FB6F8940F921F9211242F923F92BD
S11304304F925F926F927F928F929F92AF92BF92F0
S1130440CF92DF92EF92FF920F931F932F933F93DC
S11304504F935F936F937F938F939F93AF93BF93C8
S1130460CF93DF93EF93FF93A091AF06B091B006C3
S11304700DB60D920EB60D920E94C00AA091AF0661
S1130480B091B006CD91CDBFDD91DEBFFF91EF916C
S1130490DF91CF91BF91AF919F918F917F916F9198
S11304A05F914F913F912F911F910F91FF90EF908A
S11304B0DF90CF90BF90AF909F908F907F906F9080
S11304C05F904F903F902F901F900F900FBE0F9012
S11304D008950F920FB6F8940F921F9211242F9241
S11304E03F924F925F926F927F928F929F92AF92C0
S11304F0BF92CF92DF92EF92FF920F931F932F93AD
S11305003F934F935F936F937F938F939F93AF9397
S1130510BF93CF93DF93EF93FF93A091AF06B09176
S1130520B0060DB60D920EB60D920E94BB08811155
S11305300E94C00AA091AF06B091B006CD91CDBF84
S1130540DD91DEBFFF91EF91DF91CF91BF91AF912C
S11305509F918F917F916F915F914F913F912F91D7
S11305601F910F91FF90EF90DF90CF90BF90AF90CD
S11305709F908F907F906F905F904F903F902F90BF
S11305801F900F900FBE0F9008950E946902189556
S1130590E3E7F0E0A7E7B0E0B183A083138212821F
S11305A0EFE4F6E0F0937200E0937100138212829C
S11305B01182108288ED95E013969C938E93129786
S11305C0ED93FC9390936E0080936D009093700074
S11305D080936F000895CF93DF93EC01A3E7B0E01D
S11305E001C0DF01ED91FC911197EC17FD07C8F3F1
S11305F012968D919C9113979D01280F391FC21754
S1130600D30749F42A813B81820F931F13969C934D
S11306108E931297ED018A819B819E01280F391FC9
S1130620E217F307C1F42091710030917200E217D0
S1130630F30771F022813381820F931F9B838A8396
S1130640ED91FC911197808191819983888305C0F4
S11306503983288302C0F983E883CA17DB0711F0C2
S1130660CD93DC93DF91CF910895EF92FF920F9396
S11306701F93CF93DF938C010E94B5088091710082
S113068090917200892B11F40E94C8020115110582
S113069049F00B3F8FEF180718F40B5F1F4F02C090
S11306A000E010E011230CF466C00115110509F4F3
S11306B065C080916F00909170008017910708F4D5
S11306C060C0C0917300D0917400E3E7F0E002C011
S11306D0FE01EC018A819B818017910720F48881B7
S11306E099810097A9F78091710090917200C817C1
S11306F0D90709F449C0E080F18084E0E80EF11CD8
S113070088819981918380832A813B81201B310BCD
S11307102930310550F0CE01800F911FFC01338345
S113072022831B830A830E94EB022A813B818091EE
S11307306F0090917000821B930B909370008093D4
S11307406F0040916D0050916E008417950720F45E
S113075090936E0080936D0030683B832A831982E6
S1130760188280916B0090916C00019690936C00BC
S113077080936B000BC0E12CF12C08C0E12CF12C10
S113078005C0E12CF12C02C0E12CF12C0E94D5090A
S1130790C701DF91CF911F910F91FF90EF900895C2
S11307A00F931F93CF93DF93009749F1EC012497A4
S11307B02A813B8133231CF548815981452BF9F467
S11307C03F773B832A830E94B5088A819B812091CD
S11307D06F0030917000820F931F9093700080938C
S11307E06F00CE010E94EB028091690090916A0033
S11307F0019690936A00809369000E94D509DF9165
S1130800CF911F910F9108950FB6F8940F92FC01A8
S1130810828D811102C081E001C080E00F900FBE83
S113082008950FB6F8940F92FC01228D838D28133E
S113083002C081E001C080E00F900FBE08950F93C5
S11308401F93CF93DF93EC01042F1A8D4C8D442317
S1130850B9F1011116C050E08A819B810E94050FF5
S11308602C8D8A819B81820F911D9B838A832C818D
S11308703D818217930720F1888199819B838A8324
S11308801FC050E08E819F810E94050F8C8D90E0E7
S11308909195819591092E813F81280F391F3F83BE
S11308A02E83488159812417350730F42C813D81EA
S11308B0820F931F9F838E83023011F41111115004
S11308C01F5F1A8F80E0DF91CF911F910F910895E0
S11308D01F93CF93DF93EC010FB6F8940F921E8D04
S11308E00BC08989882351F0CE0141960E94260BC2
S11308F081110E94200C115011169CF38FEF8E8FE2
S11309000F900FBE0FB6F8940F921D8D0BC0888503
S1130910882351F0CE0108960E94260B81110E9473
S1130920200C115011169CF38FEF8D8F0F900FBE7A
S1130930DF91CF911F9108950F931F93CF93DF936E
S1130940FC01362F892B09F44DC0238D222309F491
S11309504BC0022F10E08FEF9FEFB8010E94F10E01
S1130960448D842F90E06817790708F43FC0EF01A5
S11309700FB6F8940F9260817181FB01249FE00D02
S1130980F11D1124FD83EC831A8E7B836A8301504D
S11309901109809FA001819F500D909F500D11243B
S11309A0CB01840F951F9F838E838FEF8D8F8E8F46
S11309B031110CC08885882389F0CE0108960E94E5
S11309C0260B882359F00E94100208C0CE01089615
S11309D00E940201CE0141960E9402010F900FBEB7
S11309E081E005C080E003C080E001C080E0DF91C9
S11309F0CF911F910F9108950F931F93F8016111E7
S1130A0003C01183008302C051834083838F648FAA
S1130A1061E0CF010E949C041F910F910895DF9221
S1130A20EF92FF920F931F93CF93DF93382FE62F0C
S1130A30882329F1682F70E08FEF9FEF0E94F10E59
S1130A408E2F90E068177907E8F03E9FC0011124CB
S1130A50813E2FEF9207C8F4D42EDE2FC32F4F967A
S1130A600E9435037C01009791F08C012D2DAC017F
S1130A70415E5F4F6D2F8C2F0E94FC0408C0E12C57
S1130A80F12C05C0E12CF12C02C0E12CF12CC701A2
S1130A90DF91CF911F910F91FF90EF90DF90089518
S1130AA0CF93882361F0861768F0C62F42E060E098
S1130AB00E940F05009741F0FC01C28F05C080E041
S1130AC090E002C080E090E0CF910895CF92DF9251
S1130AD0EF92FF920F931F93CF93DF9300D000D038
S1130AE01F92CDB7DEB78C017B015D834C83C22E90
S1130AF0D12C0FB6F8940F92F801928D838D98172C
S1130B0018F0F2E0CF1219C04C2DB701C8010E94B1
S1130B101F04F8019189992349F0C80141960E9464
S1130B20260B882331F00E94100203C081110E9419
S1130B3010020F900FBE81E04DC08C819D81892BE6
S1130B4021F40F900FBE80E045C0D11006C0CE0145
S1130B5001960E94E30BDD24D3940F900FBE0E94F4
S1130B60B5080FB6F8940F92F801858D8F3F09F4FC
S1130B70158EF801868D8F3F09F4168E0F900FBEE7
S1130B80BE016C5F7F4FCE0101960E94EE0B811176
S1130B901BC0C8010E941104882381F06C817D81EF
S1130BA0C80108960E94140BC8010E9468040E94A0
S1130BB0D50981119ECF0E9410029BCFC8010E94CB
S1130BC068040E94D50995CFC8010E9468040E9458
S1130BD0D50980E00F900F900F900F900F90DF9148
S1130BE0CF911F910F91FF90EF90DF90CF900895D8
S1130BF0FF920F931F93CF93DF9300D000D01F92E7
S1130C00CDB7DEB78C017D836C83F12C0FB6F894DD
S1130C100F92F801828D882381F08150828F808524
S1130C20882339F0C80108960E94260B81110E947E
S1130C3010020F900FBE81E053C08C819D81892BDF
S1130C4021F40F900FBE80E04BC0F11006C0CE011E
S1130C5001960E94E30BFF24F3940F900FBE0E94B1
S1130C60B5080FB6F8940F92F801858D8F3F09F4FB
S1130C70158EF801868D8F3F09F4168E0F900FBEE6
S1130C80BE016C5F7F4FCE0101960E94EE0B811175
S1130C901BC0C8010E940404882381F06C817D81FB
S1130CA0C80141960E94140BC8010E9468040E9466
S1130CB0D5098111ABCF0E941002A8CFC8010E94B0
S1130CC068040E94D509A2CFC8010E9468040E944A
S1130CD0D509C8010E940404882309F497CF80E051
S1130CE00F900F900F900F900F90DF91CF911F9165
S1130CF00F91FF900895E0917706F0917806808136
S1130D00811107C08FEF9FEF90935706809356068B
S1130D100895E0917706F09178060580F681E02D3C
S1130D208081918190935706809356060895CF93BE
S1130D30DF93EC018F89988D0E94D003CE010E942D
S1130D40D003DF91CF9108956F927F928F929F92FB
S1130D50AF92BF92CF92DF92EF920F931F93CF93F4
S1130D60DF93CDB7DEB74C01F5018789908D215013
S1130D7031093C01620E731E6115710589F415C0B9
S1130D80822F90E0FB01E80FF91F3081D501A80FF5
S1130D90B91F59963C938081882329F02F5F01C0A5
S1130DA020E0283068F3F50110A2F3E0FE1520F4EA
S1130DB00F2EF3E0EF2EF02DF501E68AC501029621
S1130DC00E941001C5010C960E941001F501B18624
S1130DD0A08684E090E08E19910995878487B38A70
S1130DE0A28AA801B401C3010E947501F50191838F
S1130DF08083C114D10419F0F601B182A082DF917D
S1130E00CF911F910F91EF90DF90CF90BF90AF9053
S1130E109F908F907F906F900895CF93C0E010C003
S1130E208C2F90E09C01220F331F220F331F220FBF
S1130E30331F820F931F8557994F0E940201CF5F82
S1130E40C43070F382E896E00E94020189E796E0DC
S1130E500E9402018CE696E00E94020183E696E07D
S1130E600E94020182E896E09093780680937706C8
S1130E7089E796E09093760680937506CF9108955E
S1130E80CF93DF93EC010FB6F8940F928091610633
S1130E908F5F809361068091AF069091B006892B95
S1130EA059F4D093B006C093AF06809161068130A7
S1130EB099F40E940D0710C080915D0681110CC049
S1130EC0E091AF06F091B00696898E89891720F0DB
S1130ED0D093B006C093AF06809158068F5F80937D
S1130EE058068E8990915E06981710F480935E06DA
S1130EF090E0FC01EE0FFF1FEE0FFF1FEE0FFF1F30
S1130F008E0F9F1FFC01E557F94F0180F281E02D00
S1130F10FD83EC83848195819F838E83A481B58135
S1130F20CE01029613969C938E9312979583848395
S1130F30EE89F0E0CF01880F991F880F991F880F61
S1130F40991FE80FF91FE557F94FFB87EA8780815E
S1130F508F5F80830F900FBE80915D06882351F0D0
S1130F60E091AF06F091B00696898E89981710F437
S1130F700E941002DF91CF910895CF93DF931CC09C
S1130F800FB6F8940F92E0916806F0916906C68155
S1130F90D781CE0102960E9445018091610681505D
S1130FA080936106809162068150809362060F905F
S1130FB00FBECE010E949706809162068111E0CF98
S1130FC0DF91CF9108950E94BD0780918B068230F6
S1130FD0D0F30E941002F7CF0F931F93CF93DF93A8
S1130FE0EC0100915F06109160068091AF0690912C
S1130FF0B00602960E944501C00FD11FE091AF06D2
S1131000F091B006D383C283C017D10768F460910E
S1131010AF067091B00680917506909176066E5F6A
S11310207F4F0E94140117C06091AF067091B00603
S113103080917706909178066E5F7F4F0E9414012D
S11310408091560690915706C817D90720F4D0937B
S11310505706C0935606DF91CF911F910F910895C3
S11310602F923F924F925F926F927F928F929F92B4
S1131070AF92BF92CF92DF92EF92FF920F931F93A2
S1131080CF93DF933C011B015A012901CA010E943D
S113109035036C01892B99F086E290E00E943503B8
S11310A0EC01892B41F086E2FE0111928A95E9F761
S11310B0D88ECF8A06C0C6010E94D00302C0C0E009
S11310C0D0E0209791F0950140E050E0812C912CE4
S11310D05E016701E02E8201B101C3010E94A406F2
S11310E0CE010E94400781E001C08FEFDF91CF91D4
S11310F01F910F91FF90EF90DF90CF90BF90AF9032
S11311009F908F907F906F905F904F903F902F9023
S11311100895EF92FF920F930F2EF4E5EF2EF6E071
S1131120FF2EF02D00E020E030E045E550E061E6E0
S113113070E083EE97E00E943008813081F4F894E7
S11311408FEF9FEF909357068093560681E080932C
S11311505D061092600610925F060E94E101809184
S113116060000F91FF90EF900895809153068F5F78
S11311708093530608950F931F93CF93DF93809129
S11311805306811101C1C0915F06D09160068E01A2
S11311900F5F1F4F1093600600935F060115110542
S11311A0B9F4809177069091780620917506309174
S11311B0760630937806209377069093760680938C
S11311C07506809159068F5F809359060E947B06AD
S11311D080915606909157060817190720F480E06D
S11311E0B8C081E001C080E0E0917706F091780614
S11311F09081911107C02FEF3FEF30935706209352
S11312005606A7C0E0917706F09178060580F6812E
S1131210E02D0680F781E02D228133810217130728
S113122028F4309357062093560693C0A285B385BD
S11312302481358146815781E9015D834C83268170
S1131240378144815581E9015B834A8311962D914D
S11312503C911297AF014E5F5F4F2417350731F46D
S11312602681378112963C932E931197138612860A
S11312709C9191509C93A489B589109719F1268566
S1131280378560897189E9017D836C83208931897F
S113129066857785E9017B836A8311966D917C91DC
S11312A012979F01245F3F4F6217730731F420891F
S11312B0318912963C932E931197158A148A9C9126
S11312C091509C93268990915E06921710F4209376
S11312D05E0630E0D901AA0FBB1FAA0FBB1FAA0FDD
S11312E0BB1F2A0F3B1FD901A557B94F11960D906B
S11312F0BC91A02DB583A48314962D913C91159790
S11313003783268314962D913C911597E9015B83CD
S11313104A8315965C934E931497A689B0E09D0179
S1131320220F331F220F331F220F331FA20FB31FAD
S1131330A557B94FB387A2879C919F5F9C93268939
S1131340E091AF06F091B0069689921708F449CF60
S11313504BCFE091AF06F091B006268930E0F90159
S1131360EE0FFF1FEE0FFF1FEE0FFF1F2E0F3F1F8D
S1131370F901E557F94F9081923008F081E090919E
S11313805A0691110CC00CC080915B0690915C06CA
S1131390019690935C0680935B0680E001C081E037
S11313A0DF91CF911F910F910895CF93DF930FB6E3
S11313B0F8940F9280915306815080935306809144
S11313C053068111BFC080916106811196C0BDC0D2
S11313D0E0917106F09172060680F781E02DA489F0
S11313E0B589C685D785808991899D838C83C08979
S11313F0D189868597859B838A8311962D913C910B
S11314001297CF010C962817390731F480899189F6
S113141012969C938E931197158A148A8C918150FD
S11314208C93A285B385C481D581868197819D8360
S11314308C83C681D781848195819B838A8311960D
S11314408D919C9112979F012E5F3F4F82179307B6
S113145031F48681978112969C938E93119713860B
S113146012868C9181508C93868990915E06981790
S113147010F480935E0690E0DC01AA0FBB1FAA0F54
S1131480BB1FAA0FBB1F8A0F9B1FDC01A557B94FB7
S113149011960D90BC91A02DB583A48314968D91C3
S11314A09C911597978386831496CD91DC9115971B
S11314B03B832A8315963C932E931497A689B0E018
S11314C0CD01880F991F880F991F880F991FA80FA6
S11314D0B91FA557B94FB387A2878C918F5F8C939F
S11314E09689A091AF06B091B00656968C91981744
S11314F030F081E080935A0602C0E0E0F0E0809191
S11315006C06811165CFEF2B11F00E947B06C09110
S11315105B06D0915C06209769F00E94BB08882383
S113152019F081E080935A062197B9F710925C066E
S113153010925B0680915A06882331F00E941002B3
S113154081E003C080E001C080E00F900FBEDF9116
S1131550CF910895CF93DF93EC01892B49F00E943A
S1131560B50860E0CE010E94EC070E94D50901C0D5
S113157080E0811102C00E941002DF91CF91089592
S113158080915306882321F081E080935A060895C0
S113159010925A0620915E0601C02150822F90E0DD
S11315A0FC01EE0FFF1FEE0FFF1FEE0FFF1FE80FF2
S11315B0F91FE557F94F3081332379F3AC01440F18
S11315C0551F440F551F440F551F480F591FDF0166
S11315D00180F281E02D0280F381E02D1296FC93CC
S11315E0EE9311974257594FE417F50729F44281B6
S11315F05381FD0152834183FC01EE0FFF1FEE0F67
S1131600FF1FEE0FFF1F8E0F9F1FFC01E557F94FC1
S11316100180F281E02D868197819093B0068093BA
S1131620AF0620935E060895CF93DF93EB0160919C
S1131630AF067091B006645F7F4F0E94140161E0B1
S1131640CE010E94EC07DF91CF910895CF93DF93F1
S1131650DC011596ED91FC9116970680F781E02D3B
S1131660A489B589C685D785808991899D838C8312
S1131670C089D189868597859B838A8311968D91AC
S11316809C9112979F01245F3F4F8217930731F477
S11316908089918912969C938E931197158A148A46
S11316A08C9181508C9380915306811160C0A285E6
S11316B0B385C481D581868197819D838C83C681BE
S11316C0D781848195819B838A8311968D919C9186
S11316D012979F012E5F3F4F8217930731F4868143
S11316E0978112969C938E931197138612868C91F0
S11316F081508C93868990915E06981710F480939C
S11317005E0690E0DC01AA0FBB1FAA0FBB1FAA0F45
S1131710BB1F8A0F9B1FDC01A557B94F11960D9073
S1131720BC91A02DB583A48314968D919C9115979B
S1131730978386831496CD91DC9115973B832A83F6
S113174015963C932E931497A689B0E0CD01880F8B
S1131750991F880F991F880F991FA80FB91FA557A4
S1131760B94FB387A2878C918F5F8C931CC04CE6D2
S113177056E0DA011196CD91DC911297D787C6878E
S11317808C819D81918B808B8C819D81DC01139652
S11317903C932E9312973D832C83558B448BDA0113
S11317A08C918F5F8C939689E091AF06F091B0068F
S11317B08689891720F481E080935A0601C080E06D
S11317C0DF91CF91089520915906FC012083209147
S11317D05F0630916006328321830895CF93DF93AF
S11317E00FB6F8940F9240915F0650916006EC0199
S11317F029813A81DA01A21BB30BF881E0915906E1
S1131800FE1741F04217530728F0FB0111821082A2
S113181081E011C0EB0128813981A217B30740F49C
S11318202A1B3B0B398328830E94E30B80E003C00F
S11318301982188281E00F900FBEDF91CF91089535
S113184081E080935A06089541E062E081E00E94BD
S1131850E20D85E08A95F1F7000040E062E081E066
S11318600E94E20D0895CF93C82F682F607F80E017
S11318700E94990E40E060E081E00E94E20D0E9427
S1131880240C8FE193E00197F1F700C000006C2F66
S11318906295607F80E00E94990E0E94240C8FE381
S11318A09FE10197F1F700C00000CF91089562E035
S11318B080E00E94550E42E060E081E00E941E0D2F
S11318C042E062E081E00E941E0D40E062E081E0BF
S11318D00E94E20D2FEF83EF91E021508040904071
S11318E0E1F700C0000082E00E94330C88E20E940D
S11318F0330C8CE00E94330C8FE39FE10197F1F7E6
S113190000C0000086E00E94330C81E00E94330C8A
S11319100895CF93C82F682F607F80E00E94990EAE
S113192041E060E081E00E94E20D0E94240C8FE11E
S113193093E00197F1F700C000006C2F6295607F7F
S113194080E00E94990E0E94240C8FE39FE101978E
S1131950F1F700C00000CF9108950E94A4000E94F6
S1131960E6000E948908FFCF9AB321E030E002C06C
S1131970220F331F8A95E2F7209529232ABB8091F1
S1131980B406811107C087B1806487B987B18F77A6
S113199087B908C0813031F487B18F7B87B987B1AB
S11319A08F7787B996B1E3EBF6E08081892B86B90E
S11319B086B1806886B98281813021F487B18062E2
S11319C087B905C0811103C087B18F7D87B98FB7EF
S11319D080688FBF86B1886086B90895009721F02A
S11319E09093B2068093B10608951F920F920FB69A
S11319F00F9211242F933F934F935F936F937F9391
S1131A008F939F93AF93BF93EF93FF9384B195B15B
S1131A10E091B106F091B2060995FF91EF91BF9163
S1131A20AF919F918F917F916F915F914F913F9172
S1131A302F910F900FBE0F901F901895683008F0EB
S1131A40C0C0843008F0BDC08130A9F138F08230C4
S1131A5009F45EC0833009F488C00895423059F413
S1131A602AB381E090E002C0880F991F6A95E2F7DB
S1131A70822B8ABB0895413061F42AB381E090E05F
S1131A8002C0880F991F6A95E2F7809582238ABB6A
S1131A900895411196C02AB381E090E002C0880FF6
S1131AA0991F6A95E2F7982F909592239ABB9BB35E
S1131AB0892B8BBB0895423059F427B381E090E021
S1131AC002C0880F991F6A95E2F7822B87BB08959D
S1131AD0413061F427B381E090E002C0880F991F80
S1131AE06A95E2F78095822387BB0895411169C006
S1131AF027B381E090E002C0880F991F6A95E2F74E
S1131B00982F9095922397BB98B3892B88BB0895FF
S1131B10423059F424B381E090E002C0880F991F49
S1131B206A95E2F7822B84BB0895413061F424B3B3
S1131B3081E090E002C0880F991F6A95E2F78095D2
S1131B40822384BB089541113CC024B381E090E01A
S1131B5002C0880F991F6A95E2F7982F90959223F7
S1131B6094BB95B3892B85BB0895423059F421B3B6
S1131B7081E090E002C0880F991F6A95E2F7822BFA
S1131B8081BB0895413061F421B381E090E002C04B
S1131B90880F991F6A95E2F78095822381BB089587
S1131BA041110FC021B381E090E002C0880F991F5A
S1131BB06A95E2F7982F9095922391BB92B3892B63
S1131BC082BB0895683008F06FC0843008F06CC0A0
S1131BD0813001F130F08230B1F1833009F44CC02E
S1131BE00895413059F42BB381E090E002C0880F8E
S1131BF0991F6A95E2F7822B8BBB08952BB381E082
S1131C0090E002C0880F991F6A95E2F780958223BD
S1131C108BBB0895413059F428B381E090E002C0B1
S1131C20880F991F6A95E2F7822B88BB089528B321
S1131C3081E090E002C0880F991F6A95E2F78095D1
S1131C40822388BB0895413059F425B381E090E0A4
S1131C5002C0880F991F6A95E2F7822B85BB08950D
S1131C6025B381E090E002C0880F991F6A95E2F7DE
S1131C708095822385BB0895413059F422B381E0D5
S1131C8090E002C0880F991F6A95E2F7822B82BB0D
S1131C90089522B381E090E002C0880F991F6A95ED
S1131CA0E2F78095822382BB08958130A9F028F061
S1131CB0823009F1833071F10895623019F48FEFA5
S1131CC08ABB0895611104C01ABA8FEF8BBB0895C3
S1131CD0613071F51ABA0895623019F48FEF87BB39
S1131CE00895611104C017BA8FEF88BB089561305D
S1131CF0F9F417BA0895623019F48FEF84BB08958C
S1131D00611104C014BA8FEF85BB0895613081F46A
S1131D1014BA0895623019F48FEF81BB08956111EC
S1131D2004C011BA8FEF82BB0895613009F411BA6F
S1131D300895813041F028F0823039F0833039F051
S1131D4008956BBB089568BB089565BB089562BB95
S1131D50089586E080BD81E889B98BB182608BB932
S1131D608AB18B7F8AB98FB780688FBF8AB1806848
S1131D708AB98AB180618AB98AB188608AB986E8E9
S1131D8080BD0895009721F09093B7068093B6061E
S1131D9008951F920F920FB60F9211242F933F9321
S1131DA04F935F936F937F938F939F93AF93BF935F
S1131DB0EF93FF938CB1E091B606F091B7060995C5
S1131DC0FF91EF91BF91AF919F918F917F916F910F
S1131DD05F914F913F912F910F900FBE0F901F90E5
S1131DE01895AA1BBB1B51E107C0AA1FBB1FA6174E
S1131DF0B70710F0A61BB70B881F991F5A95A9F7B0
S1131E0080959095BC01CD010895FB01DC0102C0D1
S1131E1001900D9241505040D8F70895F894FFCFA7
S1091E200349444C450097
S9030000FC
